:100000000C94F4020C943B030C943B030C94B31B30
:100010000C943B030C943B030C943B030C943B0368
:100020000C943B030C943B030C94232F0C94F52F5E
:100030000C946E290C943B030C943B030C943B03EF
:100040000C943B030C943B030C943B030C943B0338
:100050000C943B030C94C7290C943B030C943B0376
:100060000C943B030C943B030C943B030C943B0318
:100070000C943B030C943B030C943B030C943B0308
:100080000C943B030C943B030C943B030C943B03F8
:100090000C943B030C943B030C943B030C943B03E8
:1000A0000C943B030C943B030C943B033F16421609
:1000B000621673167B16861689168C168F16D51641
:1000C000D516921695169A16A716B416B716BB161D
:1000D000C816B01FB01FE21FE21F2F204D20612164
:1000E00061215820F1200221022101220122132244
:1000F00013220A22132213221322012201220F2289
:10010000132213220F2262308930813189308131EC
:10011000D530F83081314F315E3107634236B79BBD
:10012000D8A71A39685618AEBAAB558C1D3CB7CC57
:100130005763BD6DEDFD753EF6177231BF000000CF
:10014000803F05A84CCDB2D44EB93836A9020C5028
:10015000B9918688083CA6AAAA2ABE000000803F62
:100160001E00290014001A000800150017001F00C7
:100170002B0004001600070009000A002000E1001F
:100180001D001B000600190005002100E000E20030
:10019000E30000002C4100001C0018000C001200BD
:1001A00013002F122A000B000D000E000F002D006F
:1001B0002800000011001000360037005200E50052
:1001C00000002C420000E400500051004F000000ED
:1001D0001E0029001E001F002000210022001F0019
:1001E0002B001E021F022002210222022000E10039
:1001F000570056005500540067002100E000E2005F
:10020000E30000002C41000023002400250026000C
:10021000270030122A002302240225022602270288
:1002200028000000350089002F1230122D12E50041
:1002300000002C420000E400500051004F0000007C
:100240001E0029003A003B003C003D003E001F001C
:100250002B001F0231003300331234002000E10074
:10026000C25CC35CC55CC65CC75C2100E000E20008
:10027000E30000002C4100003F004000410042002C
:1002800043002D124C005000510052004F002E0030
:1002900028000000C85CC95C2F0030003100E50078
:1002A00000002C420000E400500051004F0000000C
:1002B00000000000000000002A2B280000000000C1
:1002C0000000000000000000000000290000000005
:1002D0002C1E3420212224342627252E362D373873
:1002E000271E1F202122232425263333362E37387C
:1002F0001F0405060708090A0B0C0D0E0F1011123A
:10030000131415161718191A1B1C1D2F3130232D05
:10031000350405060708090A0B0C0D0E0F10111203
:10032000131415161718191A1B1C1D2F3130354CB4
:1003300000000000000000000000000000000000BD
:1003400000000000000000000000000000000000AD
:10035000000000007E0F00D4FFFFFFC70000007800
:100360001E0F0500047F3F1F643214643214783C72
:100370001E1E140A05FFAA7F55400001010101015C
:10038000010101010202020202020202020303034E
:10039000030303030304040404040404050505051E
:1003A00005060606060607070707070808080809DE
:1003B0000909090A0A0A0B0B0B0C0C0C0D0D0D0E8A
:1003C0000E0E0F0F0F10101111111212131314141F
:1003D000151516161717181819191A1A1B1B1C1D94
:1003E0001D1E1E1F202021222223242425262627ED
:1003F0002829292A2B2C2D2D2E2F3031323233341F
:1004000035363738393A3B3C3D3E3F404142434424
:1004100045464748494A4C4D4E4F50515354555606
:1004200058595A5B5D5E5F616264656668696B6CB2
:100430006D6F7072737577787A7B7D7E808283852D
:1004400087888A8C8E8F91939596989A9C9EA0A26D
:10045000A3A5A7A9ABADAFB1B3B5B7BABCBEC0C277
:10046000C4C6C9CBCDCFD1D4D6D8DBDDDFE2E4E73B
:10047000E9EBEEF0F3F5F8FAFDFF120363006F000D
:100480006F006C00390035003000530000000A0393
:100490006D002E006B0069000000040309040902CE
:1004A0005B00030100A0FA09040000010301010040
:1004B0000921110100012240000705810308000AFB
:1004C00009040100020300000009211101000122BA
:1004D0002200070582032000010705030320000115
:1004E000090402000103000000092111010001229A
:1004F0007B000705840320000A12011001000000A0
:1005000008EDFE00000100010200010660FF096124
:10051000A1010962150026FF0095207508810209D6
:1005200063150026FF00952075089102C00501099A
:1005300002A10185020901A1000509190129081577
:100540000025019508750181020501093009311561
:1005500081257F95027508810609381581257F95CB
:100560000175088106050C0A38021581257F950161
:1005700075088106C0C005010980A1018503190124
:100580002AB700150126B700950175108100C00536
:100590000C0901A101850419012AA002150126A058
:1005A00002950175108100C005010906A10105072A
:1005B00019E029E7150025019508750181029501CB
:1005C000750881010507190029FF150026FF009510
:1005D0000675088100050819012905950575019121
:1005E00002950175039101C011241FBECFEFDAE01F
:1005F000DEBFCDBF04B603FE27C080916903909192
:100600006A03A0916B03B0916C038730904BA740B5
:10061000B04BD1F41092690310926A0310926B03ED
:1006200010926C0314BE84B7877F84BF0FB6F89412
:10063000A8958091600088618093600010926000AE
:100640000FBEE0E0F8E3099511E0A0E0B1E0ECEEC8
:10065000FCE602C005900D92A83EB107D9F723E051
:10066000A8EEB1E001C01D92A936B207E1F70E94E1
:10067000E42B0C9474360C94000081E0089581E022
:1006800008950C943F0308950C9443031F93CF9354
:10069000DF9300D000D01F92CDB7DEB749835A83D5
:1006A0006B8330918E0289819A81311114C0662347
:1006B00059F0222349F00E94BD26182F682F898106
:1006C0009A810E94662603C00E949126182F698194
:1006D0007A81812F04C00E94BD2669817A810F90A2
:1006E0000F900F900F900F90DF91CF911F910C946E
:1006F000A717FC01262F408151816281738184817B
:100700000C944603CF93DF93EC0160E00E947903E1
:10071000BE01DF91CF910C9444038F929F92AF92D0
:10072000BF92CF92DF92EF92FF920F931F936B01D4
:100730007C0181E090E0A0E0B0E04C015D0104C0EC
:10074000880C991CAA1CBB1C4A95D2F7AC01BD01B0
:1007500004C0440F551F661F771F2A95D2F74829FA
:1007600059296A297B2904C0880F991FAA1FBB1F1A
:100770000A95D2F78A019B010C211D212E213F21D0
:10078000401751076207730739F4BC01CD016C298A
:100790007D298E299F290AC080959095A095B095B6
:1007A000BC01CD016C217D218E219F211F910F91D4
:1007B000FF90EF90DF90CF90BF90AF909F908F9081
:1007C00008950F93382F262F6091EA027091EB0263
:1007D0008091EC029091ED02042F432F0E948D0333
:1007E0000F910C94A2250E943C070C9476070C9460
:1007F000720708950E94EF210E94F9032FEF84E30E
:100800009CE0215080409040E1F700C000000C9433
:10081000372A0F931F93CF93DF938C0161E00E94DF
:100820007903EC01B8010E949715882309F44BC0A5
:10083000B801CE010E944103882309F444C0B801E5
:10084000CE010E94DC188823F1F1B801CE010E948C
:100850002E198823C1F1B801CE010E94591A8823AC
:1008600091F1B801CE010E944214882361F1F80190
:100870008281882309F1CA358DE5D807C1F050F48B
:10088000C115FCE5DF0781F0CE3DDC45A9F40E94EF
:10089000C12819C0CB35EDE5DE0761F0CC35DD456B
:1008A00059F40E94502708C00E94FA030CC00E940D
:1008B000592702C00E945C27C801DF91CF911F9188
:1008C0000F910C943D0380E0DF91CF911F910F9128
:1008D0000895DF92EF92FF920F931F93CF93DF93D0
:1008E000E82FF0E0E055FD4FD490282F269526956F
:1008F000269530E0F901E05BFC4F0491877010E031
:10090000082E02C0159507950A94E2F70170112789
:10091000F901E05CFC4FE490F12C082E02C0F59444
:10092000E7940A94E2F791E0E922FF24F901E05DFF
:10093000FC4FC491D0E002C0D595C7958A95E2F7E7
:10094000C170DD270115110519F081EE0E94391ED5
:10095000E114F10419F086EE0E94391E8D2D0E94DB
:10096000621FEF2819F086EE0E94E31E012B19F09A
:1009700081EE0E94E31ECD2B51F08CE2DF91CF91EE
:100980001F910F91FF90EF90DF900C94621FDF9109
:10099000CF911F910F91FF90EF90DF900895EF920C
:1009A000FF920F931F93CF93DF93EC01162F0AE072
:1009B0008881882309F455C0813009F043C08981BA
:1009C000813041F47E0182E0E80EF11C8A810E94B0
:1009D000621F09C0823049F47E01E2E0EE0EF11C94
:1009E0008A810E94391EE7012FC0833041F47E01C5
:1009F000F2E0EF0EF11C8A810E94E31EF4CF8430F6
:100A000011F0219621C02A81229680E090E030E00A
:100A1000205331092A30310558F4089FA001099F5D
:100A2000500D1124C901840F951F21962881EFCF05
:100A3000009751F0EFE9FFE03197F1F700C00000B7
:100A40000197F6CF0E9469042196812F882309F42B
:100A5000AFCFEFE9FFE03197F1F700C00000815020
:100A6000F5CFDF91CF911F910F91FF90EF900895F7
:100A700060E00C94CF0408950C943B0581E0089548
:100A80000C943E05CF93C82F0E943C058C2F0E94EA
:100A90004005CF910895CF93DF930E94A7170E943E
:100AA0004D06EC01811521E5920708F043C0811540
:100AB00040E5940708F08AC0883E910520F5803E05
:100AC000910508F0E6C0883A910570F4853A9105E1
:100AD00008F074C08130910509F4DBC008F4D7C078
:100AE000049708F0D6C0D3C08F3B910508F0CFC063
:100AF000C85AD0E0CC0FDD1FC35CDE4F0990D8810F
:100B0000C02DD464C6C0C11580E2D80758F4C11501
:100B100021E0D20708F0BDC0C03FD10508F4B7C03E
:100B2000D065B7C0C11540E4D40708F4B0C0DF7089
:100B3000D06AAFC0C11585E5D807A0F4C11524E57A
:100B4000D20708F08AC0C11543E5D40708F06FC08A
:100B5000C11582E5D80708F054C0DC2FCC27C16F3F
:100B6000D06A97C0C11529E5D207A0F4C11548E5A0
:100B7000D40708F077C0C11586E5D80708F087C00C
:100B80008C2F0E94E1068F71C82FD0E0DC2FCC277C
:100B9000D0627FC0C1152AE5D20708F468C0CE0133
:100BA00090568115904208F072C08D2F8F710E946F
:100BB000E106DD27D0628F71D82B6BC0C55AD0E01B
:100BC000C559DE4FC881D0E0D06463C074E096950B
:100BD00087957A95E1F783709C2F937021E030E040
:100BE00002C0220F331F9A95E2F73C68382BCF7072
:100BF000C695C69580E2C89FE0011124C22BD32B75
:100C000048C0CE018370992721E030E002C0220F56
:100C1000331F8A95E2F78C2F8695869540E2849F54
:100C2000C0011124E901C82BD92BDC6832C0CE01E8
:100C30008370992721E030E002C0220F331F8A958C
:100C4000E2F78C2F8695869540E2849FC00111249F
:100C5000E901C82BD92BDA681CC0DC2FCC27C46F64
:100C6000D06A17C0DC2FCC27C06FD06A12C08C2F7F
:100C70008F700E94E10694E0D695C7959A95E1F7AA
:100C8000CF70D0E0DC2FCC27D069C82B02C0C0E0E9
:100C9000D0E0CE01DF91CF9108958238910569F1BE
:100CA000B0F48133910509F46DC048F4893291059F
:100CB00009F463C08A32910509F469C00895853347
:100CC000910509F455C089339105B9F00895833E23
:100CD000910569F138F4803E9105B1F0823E9105AD
:100CE00009F10895863E9105A9F1873E9105B9F174
:100CF000843E910509F064C023C020910B0320FDC0
:100D00004FC021FD4DC0089580910B0380FD44C06C
:100D100080910C0380FF44C080910B0384FD42C08E
:100D200083EE4DC080910B0382FF38C0F5CF8091D8
:100D30000B0382FD33C080910C0380FD31C0ECCFEA
:100D400080910C0381FF32C080910B0384FD2AC087
:100D500087EE35C080910B0383FF26C0F5CF8091CD
:100D60000B0383FD21C080910C0381FD1FC0ECCFDC
:100D700080910B0385FD1CC01DC080910B0385FD78
:100D800019C016C080910B0386FD16C017C0809154
:100D90000B0386FD13C010C089E311C082EE0FC0A3
:100DA00080EE0DC080E00BC086EE09C084EE07C067
:100DB00089E205C085E303C08AE201C081E390E0D7
:100DC000089590910B0392FF0DC0282F28712830B1
:100DD00019F4877F846006C0282F2471243011F411
:100DE0008B7F886093FF0DC0282F2871283119F45C
:100DF000877E846106C0282F2471243111F48B7EF4
:100E0000886120910C0320FF0DC0382F38713830D5
:100E100019F4877F816006C0382F3171313011F4A9
:100E20008E7F886021FF0DC0282F2871283119F48A
:100E3000877E816106C0282F2171213111F48E7EB9
:100E4000886194FD877E08950C9471150E9438087E
:100E50008FE39CE90197F1F700C000000E94380879
:100E600080E00E94600780FF04C00E9424070C9469
:100E7000372A08950C9426070E941928811102C070
:100E80000E94C1280E9424288093FF020E942C28DF
:100E900090930C0380930B030E943A070E9428282A
:100EA000682F70E080E090E00E9468256091EA027F
:100EB0007091EB028091EC029091ED020C94A025D0
:100EC000E82FF0E0EB5EFC4F80810895089580EA02
:100ED0008A95F1F7089500C008950C946707089566
:100EE0000C946F070C9470070C946F070C947407A4
:100EF000F894E82FE295EF70F0E031A1282F2F70E1
:100F000081E090E001C0880F2A95EAF7982F90952C
:100F1000932391A392A1892B82A378940895089595
:100F20000C948F070F931F93CF93DF930E941809A0
:100F30008091040180910401811102C094E001C0FC
:100F400090E090931E0384E0891B80931D03CEE6FE
:100F5000D1E005E711E089910E9478070C171D0781
:100F6000D1F786EF0E94780787EF0E94780781E328
:100F70000E94780783E30E947807EDE0F3E0A5E1A3
:100F8000B3E011921D9283E0E531F807D1F784E0D8
:100F90000E94C7080E94F303DF91CF911F910F9128
:100FA0000C942C091F93CF93DF9300D000D0CDB7C2
:100FB000DEB70E94FE0860911E03882309F442C038
:100FC00019821A821B821C82862F90E0BE016F5FFD
:100FD0007F4F8B5E9C4F0E94B31A811117C0809186
:100FE000EA018F5F8093EA01863040F1E0911D03B2
:100FF000F0E0EB5EFC4FDE011196CE0105961192FA
:101000001D92A817B907D9F711E019C01092EA018B
:10101000E0911D03F0E0EB5EFC4FDE0111969E01B6
:101020002B5F3F4F10E08D919081981711F08083D6
:1010300011E03196A217B307B1F701C010E00E948A
:10104000F7030DC070E06B5E7C4F80911D0390E054
:101050008B5E9C4F0E94E11A0E94900710E0812F46
:101060000F900F900F900F90DF91CF911F910895E7
:101070008F929F92AF92BF92CF92DF92EF92FF92A8
:101080000F931F93CF93DF930EE611E0C0E0D0E003
:10109000912CEE24E394F12C91E1A92E93E0B92E4A
:1010A0006801D8018C91F894E82FE295EF70F0E098
:1010B00021A18F70A70102C0440F551F8A95E2F746
:1010C000CA01922F982B91A392A18095892382A384
:1010D00078940E946B07C7010C2E01C0880F0A94F8
:1010E000EAF7582F282F2095EDE0F3E065E771E04F
:1010F000812C4081DB013D91BD01832F82958F7052
:1011000090E0DC0190968C9190E03F7002C0959544
:1011100087953A95E2F780FD03C0842F852B02C0A6
:10112000842F8223481719F0808388248394319672
:10113000AE16BF06F1F60F5F1F4FF60180810E94C9
:1011400078070E946D0798282196C730D10509F0CD
:10115000A7CF60911E0370E06B5E7C4F292D44E0A9
:101160008DE093E00E94C8080E94D207992011F0F8
:1011700081E090E0DF91CF911F910F91FF90EF9070
:10118000DF90CF90BF90AF909F908F90089508957B
:10119000FF920F931F93CF93DF938C01F62ED72FDF
:1011A000C42F222349F081E08093ED010E94A02901
:1011B0009093EC018093EB018091ED018823C1F0C5
:1011C0008091EB019091EC010E94B829069780F084
:1011D000EF2DFD2FD8014C2F50E0CD01801B910B3E
:1011E000841795071CF48D918193F7CF1092ED0130
:1011F000DF91CF911F910F91FF9008958091EE01A3
:1012000081110DC00E94BA31811102C082E001C07B
:1012100081E08093EE01823011F40E94B53181E0CB
:101220009091EE01913009F080E008950C94FE0851
:101230000E941609809304018091040166E08823CE
:1012400011F080E001C086E00E94810C0E94FE083F
:1012500081110C948A1A08950E94FE08811102C01F
:101260000C94901A08958091F50180FF0BC0609155
:101270000A0185E0689FB001112475956795759501
:1012800067952BC081FF09C060910A0185E0689FC6
:10129000B00111247595679520C082FF07C0609149
:1012A0000A0185E0689FB001112417C09091F401F4
:1012B0009923D1F060910901961788F720910A01CE
:1012C00085E0289F90011124929FA001939F500DCB
:1012D000112470E0CA010E9430356038710540F475
:1012E0006115710519F406C065E070E0862F089558
:1012F0008FE7089581E008958091F50180FF08C08F
:101300006091060170E0759567957595679521C0A8
:1013100081FF06C06091060170E07595679519C060
:1013200082FF04C06091060170E010C09091F3014B
:10133000992399F0609105019617A0F78091060115
:10134000899FC001112470E00E943035603871051A
:1013500040F46115710519F406C061E070E0862F54
:1013600008958FE7089581E00895803F21F40E9459
:101370003309819504C0813F29F40E943309809389
:10138000F9010895823F21F40E943309819504C038
:10139000833F29F40E9433098093F8010895893F1F
:1013A00019F40E947C0905C08A3F31F40E947C092F
:1013B00081958093FA0108958B3F21F40E947C0966
:1013C000819504C08C3F29F40E947C098093FB0125
:1013D00008959CE0980F953078F421E030E0A90161
:1013E00002C0440F551F9A95E2F7CA019091F70188
:1013F000892B8093F70108958D3F21F48091F501A9
:1014000081600BC08E3F21F48091F501826005C0A0
:101410008F3F29F48091F50184608093F501089550
:10142000803F39F49091F90197FF35C01092F9018E
:1014300059C0813F29F49091F9011916BCF32BC0D2
:101440009091F801823F29F497FF25C01092F8018E
:1014500049C0833F19F41916CCF31DC09091FA01CD
:10146000893F29F41916BCF41092FA013BC08A3F57
:1014700019F497FF10C0F8CF8B3F39F49091FB011E
:1014800097FF09C01092FB012DC08C3F21F4909171
:10149000FB011916BCF39CE0980F953080F421E015
:1014A00030E0A90102C0440F551F9A95E2F7CA0126
:1014B00080959091F70189238093F70113C08D3FA8
:1014C00021F48091F5018E7F0BC08E3F21F4809135
:1014D000F5018D7F05C08F3F29F48091F5018B7F49
:1014E0008093F5018091F801811106C08091F90186
:1014F000811102C01092F4018091FA01811106C09D
:101500008091FB01811102C01092F30108950E94A5
:10151000A0292091F801211104C02091F901222372
:1015200021F09093F2018093F1012091FA012111B1
:1015300004C02091FB01222321F09093F0018093BD
:10154000EF0186EF91E00C94E21CEF92FF920F9373
:101550001F93CF93DF9300D000D000D0CDB7DEB77C
:1015600086E0E6EFF1E0DE01119601900D928A959A
:10157000E1F7E090F801F090F9010091FA01109183
:10158000FB011092F8011092F9011092FA011092E9
:10159000FB01E11003C0FF2009F45DC08091F1015F
:1015A0009091F2010E94B829AC019091F401992325
:1015B00039F020910B0130E02417350758F04BC06B
:1015C00020910C018AE0289F9001112424173507EF
:1015D00018F041C09F3F19F09F5F9093F401EE20F7
:1015E00061F00E9433091E1414F09FEF01C091E0D6
:1015F000989F902D11249093F801FF2061F00E9494
:1016000033091F1414F09FEF01C091E0989F902DB3
:1016100011249093F9013091F8013323E1F02091E6
:10162000F9012223C1F045EB3403C00111249923B1
:1016300019F09093F80103C081E08093F80135EB35
:101640002303C0011124992319F09093F90103C0D9
:1016500081E08093F901011103C0112309F45DC0F9
:101660008091EF019091F0010E94B829AC01909116
:10167000F301992339F02091070130E02417350751
:1016800058F04BC0209108018AE0289F9001112456
:101690002417350718F041C09F3F19F09F5F9093C2
:1016A000F301002361F00E947C09101614F09FEFF3
:1016B00001C091E0989F902D11249093FA0111237D
:1016C00061F00E947C09111614F09FEF01C091E0B7
:1016D000989F902D11249093FB013091FA013323B0
:1016E000E1F02091FB012223C1F045EB3403C0015E
:1016F0001124992319F09093FA0103C081E080939B
:10170000FA0135EB2303C0011124992319F09093BA
:10171000FB0103C081E08093FB018091F8018111FE
:101720000BC08091F901811107C08091FA018111EC
:1017300003C08091FB0181110E94870AEB82FC8229
:101740000D831E8386E0FE013196A6EFB1E0019085
:101750000D928A95E1F726960FB6F894DEBF0FBE7C
:10176000CDBFDF91CF911F910F91FF90EF90089522
:10177000E6EFF1E086E0DF011D928A95E9F710922D
:10178000F4011092F3011092F5010895EF92FF9287
:101790000F931F93CF93DF938B01682F11110AC012
:1017A000442329F0E82FF0E0E658FC4F6491762FAF
:1017B000862F75C0212F30E0E82FF0E0442321F080
:1017C000E658FC4FE491F0E046E0049FC00111248C
:1017D000CFEFD0E0BE010E941C354BEA4603C001AA
:1017E000479F900D1124800F911D800F911D982F00
:1017F000990F890FAE01421B530B4E9FD0014F9F93
:10180000B00D5E9FB00D11249B2F189FA0011124D5
:10181000452F55278E01041B150B0E9FA0010F9F0E
:10182000500D1E9F500D11247E01E81AF108E29E12
:101830008001E39E100DF29E100D1124212F3327FD
:10184000C21BD30BCE9F9001CF9F300DDE9F300D7A
:10185000112462307105A9F048F46115710569F031
:1018600061307105C9F48B2F752F0DC0643071057F
:1018700081F058F06630710579F47E2F8B2F932F0D
:101880000DC0832F7B2F9E2F09C08E2F7B2F952F6E
:1018900005C08E2F732F02C07E2F852F692FDF91F9
:1018A000CF911F910F91FF90EF90089541E00E941A
:1018B000C60B08950895682F70E080E090E00E94C4
:1018C000113320E030E04FE753E40E9434322BED37
:1018D0003FE049E450E40E943A340E94A7340E9459
:1018E000AE322BE43AE34EE25FE30E94C73120EFD1
:1018F0003BEF48ED52E40E943A340E94E032862FDA
:101900000895E0E1F1E08083618308950E94560C20
:101910000895CF93DF93762FE901682F842F0E94DB
:10192000860C798368838A83DF91CF9108958091B3
:101930001F03282F269530E02115310519F48170F9
:10194000826005C02B32310524F08170846580935C
:101950001F03089588E090E00C941536CF92DF9233
:10196000EF92FF926B017C010E94970CB701A601D8
:1019700088E090E0FF90EF90DF90CF900C943336AA
:1019800060911F03709120038091210390912203A5
:101990000C94AE0CEFE1F3E083E0808311828FEFD3
:1019A000828383831482ABE5B2E012968C91129706
:1019B000836012968C9360817181828193810C94F3
:1019C000AE0C80911F0380FF02C08695089580E0D1
:1019D000089590912303933018F49F5F909323030D
:1019E000882351F060911F0370912003809121039F
:1019F000909122030C94AE0C089581E00C94E90CB4
:101A000090912303992319F09150909323038823F5
:101A100051F060911F0370912003809121039091F8
:101A200022030C94AE0C089581E00C94000D80917B
:101A30002303089580932303662351F060911F03CD
:101A40007091200380912103909122030C94AE0C9D
:101A5000089560E00C941A0D809120030895809100
:101A60002103089580912203089570E00C940F15CE
:101A70006091110180911F0380FF0AC080911001C5
:101A800023E0829FC00111248C5D9C4F0C94350D86
:101A90008091120190911301891780F7E82FF0E0EF
:101AA0009F01220F331FE20FF31FEC5DFC4F1182E9
:101AB000108212828F5FF0CF90911F0390FF16C0AB
:101AC0009091120120911301921770F4E92FF0E028
:101AD000DF01AA0FBB1FEA0FFB1FEC5DFC4F8183E8
:101AE000608342839F5FF0CF0C94380D0895CF93AD
:101AF000DF9300D01F92CDB7DEB790911F0390FF08
:101B00000AC09E012F5F3F4F0E94890C4B81698163
:101B10008A810E945C0D0F900F900F90DF91CF9102
:101B20000895CF93DF93EC018C810E945B0CEFE171
:101B3000F3E0482F628181810E94770D8C818F5F55
:101B40008C83DF91CF910895CF93DF93EC01EFE188
:101B5000F3E0438162818C810E94770D8C818F5FDD
:101B60008C83DF91CF9108950F931F93CF93DF93D1
:101B700000D01F92CDB7DEB78C018091FC0181119E
:101B80000AC09E012F5F3F4F4FEF6FEF0E94890CFD
:101B90008A818093FC01F8018481813051F028F022
:101BA000823061F44091FC010AC08091FC0140E068
:101BB00007C06091FC0140E080E003C040E080E0AD
:101BC00060E00E945C0DF801848190E0019663E082
:101BD00070E00E94303584830F900F900F90DF915A
:101BE000CF911F910F910895AF92BF92CF92DF9244
:101BF000EF92FF920F931F93CF93DF9300D01F922A
:101C0000CDB7DEB7182FF62E042FE22E90911F03CA
:101C100090FF7EC0E92FE695AE2FB0E0A358BE4FEF
:101C20008C9180935B029E7F923061F49E012F5FC6
:101C30003F4F812F0E94890C4B8169818A810E94CC
:101C40005C0D43C0823019F4009122033EC08630FF
:101C500019F41091200339C08930D9F38931A9F5DD
:101C6000E9518E2F8170D82EE695F0E0EB58FC4FAD
:101C7000A590B490C12CBB2460911401C61618F530
:101C80002C2D30E0A29EC001A39E900DB29E900D1F
:101C9000112470E00E941C35812FD11002C0860FE4
:101CA00001C0861B90911201290F311DA901440F1B
:101CB000551F240F351F2C5D3C4F402F6F2D0E9468
:101CC000890CC394D9CF0E94380D8091200318133A
:101CD00008C080912103F81204C0809122030817E4
:101CE00029F080915D02826080935D021093200351
:101CF000F092210300932203EE2051F060911F0324
:101D00007091200380912103909122030E94AE0CD8
:101D10000F900F900F90DF91CF911F910F91FF9037
:101D2000EF90DF90CF90BF90AF900895EFE1F3E098
:101D30009181282F4381628188E0890F0C94F40DF2
:101D400081E00C94960EEFE1F3E09181282F43811E
:101D5000628188EF890F0C94F40D81E00C94A30E3E
:101D6000EFE1F3E0628128E0620F08F46FEF282FC3
:101D7000438181810C94F40D81E00C94B00EEFE16D
:101D8000F3E0628128E0621B08F460E0282F4381C1
:101D900081810C94F40D81E00C94BF0EEFE1F3E02F
:101DA000438128E0420F08F44FEF282F62818181A0
:101DB0000C94F40D81E00C94CE0EEFE1F3E043813E
:101DC00028E0421B08F440E0282F628181810C94B6
:101DD000F40D81E00C94DD0E20E00C94F40DFF92E4
:101DE0000F931F93CF93DF93EC01F12C0FEF10E0D3
:101DF00060911401F616F0F4809112012F2D30E05D
:101E0000280F311DC901880F991F280F391F2C5D1C
:101E10003C4F70E0C8010E943035962F8C81409174
:101E2000220360912103F99E800D11240E94890CE8
:101E3000F394DECF0E94380D9A818C8190FF02C00E
:101E40008F5F01C081508C83DF91CF911F910F91E3
:101E5000FF9008959F92AF92BF92CF92DF92EF9240
:101E6000FF920F931F93CF93DF93EC018A8180FF42
:101E700003C0BB24BA9402C0BB24B3948C818111EB
:101E80000DC081E0B81206C080911401815080938A
:101E9000FE0102C01092FE0181E08C83A12C809192
:101EA0001401A81608F041C080911201CA2CD12C4F
:101EB0008601080F111DC801880F991F080F191FEF
:101EC0000C5D1C4FF80111821082128234E0E32E67
:101ED000F12C912C8091FE01890D813114F08F70CD
:101EE00005C087FF03C090911401890F082E000CD4
:101EF000990BC816D90691F4809122038E9DA001FA
:101F00008F9D500D112455954795559547959801EE
:101F100060912103809120030E94890C9B0CF1E0C9
:101F2000EF1AF108B9F6A394BACF0E94380D809148
:101F3000FE0191E0B9120EC0811107C08091140119
:101F400081508093FE011C820FC081508093FE015E
:101F5000BC820AC090E001966091140170E00E947A
:101F600030358093FE018C83DF91CF911F910F91CB
:101F7000FF90EF90DF90CF90BF90AF909F9008952B
:101F80001F93CF93DF93EC018C81811109C081E015
:101F90008C831092FD0192E090930F0180930E01CB
:101FA0008091120190911301891770F4E82FF0E0ED
:101FB0009F01220F331FE20FF31FEC5DFC4F1182D4
:101FC000108212828F5FF0CF10E06091140116171B
:101FD000C0F5E12FF0E070E0CF010E943035209194
:101FE0001201820F2091FD01022E000C330B90E0B4
:101FF000E217F307CCF020910F01022E000C330BF7
:102000002E173F078CF09C01220F331F820F931F66
:102010009C012C5D3C4F40912203609121038091F3
:1020200020030E94890C0BC0FC01EE0FFF1F8E0FD6
:102030009F1FFC01EC5DFC4F1182108212821F5F1A
:10204000C4CF0E94380D80910E012091FD01280F10
:102050002093FD0190910F01980F90930F01191695
:102060005CF4022E000C330B4091140150E04150FF
:1020700051092417350734F0819580930E01813082
:1020800009F41C82DF91CF911F9108958F929F9246
:10209000AF92BF92CF92DF92EF92FF920F931F9376
:1020A000CF93DF938C01FC014481C42FD0E09E01CB
:1020B000DE010E947B359B01AC010E9491356B01D2
:1020C0007C01E0E2F0E0EC1BFD0BA5E5B0E09B013C
:1020D000AC010E9491354B015C019F01DF010E9420
:1020E00073359B01AC010E949C359B01AC012C0D0A
:1020F0003D1D4E1D5F1DC501B4010E944435C22F18
:10210000D22F2A3228F4F3E02F9F900111240DC022
:1021100025E530E02C1B3109C901880F991F280FD4
:10212000391F37FF02C02F5F3F4F35952795C22FCC
:10213000C095F12C85E5E82EED1A80911401F81672
:10214000C8F4F1FC02C08E2D01C08D2F90911201B8
:102150002F2D30E0290F311DA901440F551F240FE9
:10216000351F2C5D3C4F4C2F609121030E94890C40
:10217000F394E3CF0E94380DF8018481811102C0ED
:1021800091E003C0803219F49FEF90930D0190917C
:102190000D01890FF8018483DF91CF911F910F9179
:1021A000FF90EF90DF90CF90BF90AF909F908F9077
:1021B00008950F931F93CF93DF93EC0100E010E09D
:1021C00080911401282F30E00217130724F5909115
:1021D00012019801290F311DA901440F551F240F29
:1021E000351F2C5D3C4F869590E04C8108171907F0
:1021F0001CF4442331F002C0411103C0409122037A
:1022000001C040E060912103809120030E94890C6D
:102210000F5F1F4FD5CF0E94380D8C8190E0019643
:10222000817099278C83DF91CF911F910F91089531
:102230007F928F929F92AF92BF92CF92DF92EF9256
:10224000FF920F931F93CF93DF93FC0192807480D2
:1022500081E0848380E00E945B0C882E8FE70E94DF
:102260005B0CA12CF5E0BF2ECC24CA94D12C88198C
:10227000E82EF12C80911401A81608F09FC00A2DB9
:1022800010E022E0291568F0B09EF001B19EF00D3B
:102290001124EE5FFD4F8091200380838091210304
:1022A000818371100AC0B09EF001B19EF00D11241F
:1022B000EE5FFD4F1382128267C0B09EE001B19EB7
:1022C000D00D1124CE5FDD4F8B818823E1F081504A
:1022D0008B832FEF829FC00111246C8170E00E94DC
:1022E0001C35862F0E945B0C88192FEF829FC0013E
:1022F0001124B7010E941C3580912203689FB00110
:1023000011247A8341C00E94F03520912203269542
:10231000215830E0A901440F551F322F2227240FE6
:10232000351F232F33278217930774F582E0891511
:1023300088F40E94F035B6010E94303588830E94EF
:10234000F035209121032695622F70E00E943035F0
:10235000280F2983B09EF001B19EF00D1124EE5F8D
:10236000FD4F128280912203843120F0893C18F0C5
:1023700088EC01C084E1B09EF001B19EF00D112403
:10238000EE5FFD4F84838383809112019801280FB3
:10239000311DC901880F991F280F391F2C5D3C4F33
:1023A000B09EF001B19EF00D1124EE5FFD4F428111
:1023B000618180810E94890CA3945CCFDF91CF91D1
:1023C0001F910F91FF90EF90DF90CF90BF90AF9053
:1023D0009F908F907F900C94380D80915D020895AE
:1023E00010925D02089525E0EFE1F3E0DC01019039
:1023F0000D922A95E1F720915B0230915C024091A9
:102400005D02FC01258336834783089560911F0395
:10241000669570E04BE050E085E191E00E94003667
:10242000892B19F481E080935C020E942E2A9093FC
:1024300053028093520280915D02846080935D021A
:102440000895EBE5F2E01182828184608283089531
:1024500090911F0390FF3AC09170811102C0926069
:1024600006C08B3210F0946502C0880F982B9093B1
:102470001F0380915D02816080935D02662351F0AD
:1024800060911F037091200380912103909122039A
:102490000E94AE0C60911F03669570E04BE050E027
:1024A00085E191E00E940036892B19F00E942112EB
:1024B00002C00E94061281E08093550240912203DF
:1024C00060912103809120030C94EC0E0895682FF5
:1024D00090911F03969581E0890F8B3208F081E07F
:1024E0000C94281281E00C946712682F90911F03BE
:1024F00096958FEF890F09F48AE20C94281281E0F7
:102500000C94751261E00C942812EFE1F3E08081E5
:102510008160808386950C94821260E00C9428126E
:10252000EFE1F3E080818160808386950C948D12C9
:10253000109259028091580281110E9490120C94BD
:102540000612EFE1F3E080818E7F808360817181EC
:10255000828193810E94AE0C0E942112EBE5F2E091
:102560008281816082832FEF80E792E0215080405A
:102570009040E1F700C000000C94380D80911F03DB
:1025800080FD0C94A1120C948512EFE1F3E08081A0
:102590008E7F80830E942112EBE5F2E082818160D0
:1025A00082832FEF80E792E0215080409040E1F756
:1025B00000C000000C94380D0E9421128091590235
:1025C00081110AC081E08093590280911F038170BC
:1025D000809358020C94C51208951F93CF93DF93F4
:1025E000EC01162F8F8180FF0FC0888180FF0AC009
:1025F00080911F03816080931F03888186950E94CC
:10260000281202C00E94C5128F8181FF06C0212FAF
:102610004B816A8189810E94F40D8F8182FF08C0FD
:102620008E81882319F00E94061202C00E94211296
:102630008F8183FF03C081E080935502DF91CF91AA
:102640001F91089580915A02811133C00E94192868
:10265000811104C00E94C1280E94CA0C0E94AA0CC9
:1026600060931F03709320038093210390932203B0
:1026700080915D02836080935D026E7F61F40E94B1
:10268000CA0C0E94AA0C60931F03709320038093CE
:102690002103909322030E94970C0E9421128091A3
:1026A0001F0380FF03C086950E948D1281E08093F6
:1026B0005A020895EF92FF920F931F93CF93DF93E7
:1026C00080915C02882309F4BBC080915B02E09199
:1026D0001F03E695E81BE0935402823049F4F0E0D2
:1026E000EF58FC4FE491CE2FD0E001E91DE059C036
:1026F000863049F4F0E0E259FC4FE491CE2FD0E06F
:1027000004EA1DE04EC0893051F4E695F0E0E55949
:10271000FC4FE491CE2FD0E00FEE1EE042C08F3090
:1027200051F4E695F0E0E859FC4FE491CE2FD0E06B
:102730000AE21FE036C0853149F4F0E0EB59FC4F66
:10274000E491CE2FD0E000EC1FE02BC08831D9F00F
:10275000833239F4E3E6F3E0C591D49104EB1DE054
:1027600020C08432A9F08532C1F48E2F63E00E942C
:102770001035E92FF0E0E05AFC4FE491CE2FD0E085
:1027800008E111E10EC0C8E2D0E006E410E109C0A2
:10279000C4EFD1E009ED10E104C0C0EDD7E00AE5D7
:1027A0001CE080915502882361F0109255020E942E
:1027B0002E2A909353028093520210925702109245
:1027C00056020E942E2AE0915202F09153029C017F
:1027D0002E1B3F0B2F3F3F4798F5209101022223EC
:1027E000B1F0109201022091FF0130910002821B92
:1027F000930B8F3F9F4758F4205D3A483093000277
:102800002093FF0180915D02886080935D02E090DB
:102810005602F0905702EC0FFD1FF0935302E09325
:10282000520282E592E0F80109958091560290915A
:102830005702892B29F4EF2819F081E080930102D7
:10284000DF91CF911F910F91FF90EF900895882312
:1028500011F0FA0101C0FB010994CF93DF93C82F57
:10286000D62F0E94E10C8C1740F00E94E10C8D17CE
:1028700020F4DF91CF910C9472128C2FDF91CF91C5
:102880000C9482121F93CF93DF93FB0112811111DD
:10289000C1C0EC010E945F278272CC3CFCE5DF07DF
:1028A00009F49AC008F043C0C63CECE5DE0709F421
:1028B0007FC0D8F4C33C9CE5D90709F46DC038F457
:1028C000C23CDC4509F0A5C00E94BE12A3C0C43CB6
:1028D0009CE5D90709F465C0C53CDC4509F099C001
:1028E0004DEA5EE060EA7EE060C0C93CFCE5DF07DF
:1028F00009F468C070F4C73CECE5DE0709F45DC07C
:10290000C83CDC4509F085C04CEB5EE06BEC7EE03A
:102910004CC0CA3C9CE5D90709F459C0CB3CDC4506
:1029200009F077C044E15DE06DEF7CE03EC0C13D61
:10293000FCE5DF0709F45DC098F4CE3C9CE5D907BF
:1029400009F451C008F44DC0CF3CFCE5DF0709F4A1
:102950004DC0C03DDC4509F05CC06EE089E056C06A
:10296000C43D9CE5D90709F44AC058F4C23DFCE5D2
:10297000DF0709F441C0C33DDC4509F04AC088E1E6
:1029800042C0C53D9CE5D907E9F1CD35DD4509F0EB
:1029900040C06AE285E23AC04FE752E162E772E185
:1029A00004C042E752E16FE772E10E94271432C08F
:1029B00040EA5EE06DEA7EE0F8CF4BEC5EE06CEB67
:1029C0007EE0F3CF49EE5EE06AED7EE0EECF4AEDC9
:1029D0005EE069EE7EE0E9CF4DEF5CE064E17DE032
:1029E000E4CF81E010C065E082E010C068E086E0DE
:1029F0000DC064E18FE00AC067E185E107C062E2D3
:102A000089E104C083E20E94821204C00E942D1456
:102A100001C011E0812FDF91CF911F910895539A4A
:102A20002BB1277F3BB138604FB7F894FC01CB0145
:102A3000880F991F680F791F6E0F7F1FE617F70722
:102A400089F0819198E03BB9000000C087FF2BB965
:102A5000880F000000C000C000C02BB900C09A95CC
:102A600091F7ECCF4FBF8FE594E00197F1F700C0ED
:102A70000000089583E290E00E940D36813281F4D7
:102A800084E290E00E940D36873051F485E290E0B8
:102A90000E940D3691E0883109F090E0892F01C045
:102AA00080E081700895CF93C82F811102C06FEF2D
:102AB00001C061E283E290E00E942136C11102C0B0
:102AC0006FEF01C067E084E290E00E942136C111FF
:102AD00002C06FEF01C068E185E290E0CF910C94F5
:102AE000213680E00E9453150C941328089586E245
:102AF00090E00E940D36682F70E080E090E008952D
:102B000086E290E00C9421360E9476150E943A15D8
:102B100081110CC060E070E0CB010E9480150E9422
:102B200022170E94011881E00C9453150895CF9349
:102B3000FB01C281CC23E9F09C0122513F452031A9
:102B4000310520F482510E9411180CC08031FFE53C
:102B50009F0751F481E00E94C82543E062E081E0D4
:102B60000E94E103C0E018C081319F45A9F482E0D2
:102B7000F2CF8031EFE59E0711F481E004C081318E
:102B80009F4549F482E00E94E92543E062E081E04C
:102B90000E94E10301C0C1E08C2FCF9108952FEF77
:102BA000FC0120830895CF93DF93EC018881813865
:102BB00089F028F48038A1F40E94320D10C08238C8
:102BC00061F0833869F40E942C0D89830E942F0DD7
:102BD0008A8306C00E94E10C02C00E94170D8983FF
:102BE000DF91CF910895CF93DF93EC0188818138F5
:102BF000B1F058F4803851F5D9810E942F0DC82FBB
:102C00000E942C0D4D2F6C2F1DC08238B1F08338DF
:102C1000E9F40E94320D482F6A81898113C08981AD
:102C20000E948D128981811104C0DF91CF910C9493
:102C3000C512DF91CF910C9490128981DF91CF91D1
:102C40000C94290DDF91CF910C94EC0EDF91CF9174
:102C50000895EF92FF920F931F93CF93DF93EC01B0
:102C6000062F0196E8814E2F50E0FA013197E331AB
:102C7000F10508F09AC0EA5AFF4F0C9466351982A4
:102C800089E056C08981823039F0833061F081302B
:102C900029F50E94AC2902C00E9477159A838B8384
:102CA0007C836D8384C07E0182E0E80EF11C10E01D
:102CB000812F0E946007F70181937F011F5F183009
:102CC000B9F775C08981823049F46A817B818C8132
:102CD0009D810E946C350E94801569C0602FCE01D5
:102CE0000E94CF1564C04B816A8189810E94F416CD
:102CF0009C838D835CC02C813D8132272327322722
:102D00004B816A8189810E940D1751C00E94221750
:102D10004EC00E94F3154BC00E94D31548C00E94BC
:102D2000C00C45C00E94B41724C00E94B6179983F6
:102D30008A833DC06B8170E089819A81AE014C5FCE
:102D40005F4F9827892798270E94B91730C06B8159
:102D500070E089819A81AE014C5F5F4F9827892787
:102D600098270E94DE1723C00E94011820C00E94ED
:102D7000E11689831CC06B8170E089819A81AE0164
:102D80004C5F5F4F9827892798270E9461170FC0D3
:102D90006B8170E089819A81AE014C5F5F4F98270B
:102DA000892798270E94851702C08FEF8883602F9C
:102DB000CE01DF91CF911F910F91FF90EF900C9476
:102DC000D52A84E0089550E0440F551F2EE0629FFD
:102DD000400D511D11249A0160E7869F200D311D81
:102DE0001124C901879608950F931F93CF93DF9302
:102DF0000E94E3168C010E940D36C82FD0E0DC2F14
:102E0000CC27C80101960E940D369E01282BC901CE
:102E1000DF91CF911F910F9108950F931F93CF933F
:102E2000DF93122F032F0E94E316EC01602F0E9404
:102E30002136612FCE010196DF91CF911F910F9125
:102E40000C942136AF92BF92CF92DF92EF92FF9215
:102E50000F931F93CF93DF93A12CE12CF12CB12C76
:102E600000E010E0C0E0D0E06701C00ED11EFE011E
:102E7000EE0FFF1FEC0DFD1DE05AFE4F2591349122
:102E80004C2F6B2D8A2D0E940D172196C730D1052E
:102E900071F7025F1F4FB39488E0B812E3CF80E769
:102EA000E80EF11CA39484E0A812D9CFDF91CF9152
:102EB0001F910F91FF90EF90DF90CF90BF90AF9058
:102EC0000895EF92FF920F931F93CF93DF93EA0140
:102ED0007A01E60EF71E8C01C8018796CE15DF0534
:102EE00069F0003C21E0120720F40E940D3688832F
:102EF00001C0188221960F5F1F4FEECFDF91CF9157
:102F00001F910F91FF90EF900895EF92FF920F9312
:102F10001F93CF93DF93EA017A01E60EF71E8C012F
:102F2000C8018796CE15DF0559F0003C21E0120755
:102F300018F468810E94213621960F5F1F4FF0CF51
:102F4000DF91CF911F910F91FF90EF900895462F41
:102F5000843038F4783028F4673018F4672F0C94F4
:102F6000F41680E090E0089580E1089589E192E010
:102F70000895EF92FF920F931F93CF93DF93EA018F
:102F80007A01E60EF71E8C01C80189519E4FCE15BD
:102F9000DF0569F0093122E0120720F40E940D36A6
:102FA000888301C0188221960F5F1F4FEDCFDF91FC
:102FB000CF911F910F91FF90EF900895EF92FF92A4
:102FC0000F931F93CF93DF93EA017A01E60EF71E6A
:102FD0008C01C80189519E4FCE15DF0559F009318A
:102FE00022E0120718F468810E94213621960F5FB3
:102FF0001F4FEFCFDF91CF911F910F91FF90EF9077
:103000000895CF93DF93C7EED1E060E0CE010E9438
:1030100021362196C11584E0D807B9F7DF91CF9109
:103020000895DF92EF92FF920F931F93CF93DF9358
:1030300000D000D0CDB7DEB7F82E8FE08F15E8F1C5
:103040008FEF93E00E940D36811137C007EE11E03B
:10305000FF2069F0011584E0180779F1C8010E948A
:103060000D36811101C0FA940F5F1F4FF1CF198205
:103070001A821B821C82DD24D39478018FEFE81A18
:10308000F80AC8010E940D3689831A828823A9F0A4
:103090009FEF980F933058F48A83D9820E5F1F4FA9
:1030A000C7010E940D368B83882339F07801CE0149
:1030B00001960E9438058701E0CF0F900F900F9086
:1030C0000F90DF91CF911F910F91FF90EF90DF90C4
:1030D00008950F931F93CF93DF93C42FD22FFC013A
:1030E00082818823C9F0409360020E94A0299093B6
:1030F0005F0280935E0280E28C0F883008F057C038
:10310000C77081E001C0880FCA95EAF7DF91CF91BF
:103110001F910F910C946B1F80916002481330C077
:1031200080915E0290915F020E94B829883C9105CF
:1031300038F510E21D0FCD17B9F080E28C0F883002
:1031400040F4C77081E001C0880FCA95EAF70E9479
:10315000721F183028F581E09D2F977001C0880FED
:103160009A95EAF70E946B1F802F0E94621F183009
:10317000F0F4D77081E001C0880FDA95EAF70AC051
:1031800080E28C0F883098F4C77081E001C0880F0E
:10319000CA95EAF7DF91CF911F910F910C94721F9E
:1031A000802FDF91CF911F910F910C94621FDF91BF
:1031B000CF911F910F9108950F939C01CB01233F55
:1031C0004CE5340731F188F4283DFCE53F07D9F0A0
:1031D000293D4CE5340779F1273D3C45A9F506E248
:1031E00021EE41EE67ED7CE52BC0253FFCE53F0776
:1031F000E1F0A8F0263F3C4539F507E225EE46EE22
:1032000066EF7CE51DC007E225EE45EE68ED7CE546
:1032100017C006E221EE40EE63EF7CE511C007E245
:1032200025EE44EE64EF7CE50BC006E221EE42EEB3
:1032300065EF7CE505C008E221E045EE69ED7CE53F
:103240000E94691880E008C0FC018281882319F07F
:103250001092600201C081E00F910895CF93DF9337
:10326000EC01FB018281882309F41FC1C230FCE517
:10327000DF0708F41BC1C6319CE5D90738F09E0171
:103280002A5F3C452930310508F010C10E942C28E6
:1032900090930C0380930B03C031ECE5DE0709F437
:1032A000C3C008F041C0C8308CE5D80709F49AC003
:1032B000F0F4C430ECE5DE0709F487C068F4C230EE
:1032C0008CE5D80709F477C0C330DC4509F0E3C0CA
:1032D00080910B03826076C0C630ECE5DE0709F40E
:1032E0006EC008F07BC080910B0388606BC0CC304F
:1032F0008CE5D80709F485C068F4CA30ECE5DE0730
:1033000009F474C008F079C00E94EF2180910B038A
:10331000806858C0CE308CE5D80709F476C008F034
:103320007FC080910B038BC0CB3FECE5DE0709F437
:103330004FC018F5C3318CE5D80709F47DC078F487
:10334000C131ECE5DE0709F473C0C231DC4509F098
:10335000A2C00E94EF2180910B038F7733C0C5314B
:103360008CE5D80709F472C008F486C0CA3FDC4572
:1033700009F091C080910C033EC0CF3FFCE5DF0710
:1033800009F45FC058F4CD3F9CE5D90709F444C067
:1033900008F43FC080910C0382602DC0C130FDE570
:1033A000DF0709F475C008F45DC0C230DD4509F0DF
:1033B00072C080E06EC080910B03816003C0809179
:1033C0000B03806180930B0366C080910B0311C0D7
:1033D00080910C03826080930C035DC080910B038D
:1033E0008062F0CF80910B038064ECCF80910B035F
:1033F00088608460E7CF8160EECF80910B038E7F81
:10340000E1CF80910B038D7FDDCF80910B03877F10
:10341000D9CF80910C0318C080910C038D7FDBCF36
:1034200080910B038F7ECECF80910B038F7DCACF0F
:1034300080910B038F7BC6CF80910B03877F8B7F9F
:10344000C1CF80910C038D7F8E7FC5CF80910B0300
:1034500082FB222720F991E0922790FB82F990FBD2
:1034600083F9B0CF80910C03982F909591708E7F47
:10347000892B90FB81F9AFCF0E94EF2180910B0344
:1034800087FB222720F991E0922790FB87F99ACFBA
:1034900081E00E94C32880910B0390910C030E944D
:1034A0003D280E94EF2180E001C081E0DF91CF91B3
:1034B0000895CF93DF9386319C4541F5EB010E943F
:1034C0005F27982F8A812091300130913101882324
:1034D00079F09A7A81E009F480E080936102911199
:1034E00002C069E201C065E3C9010E940A290AC05D
:1034F00080916102811102C069E201C065E3C901E6
:103500000E940C290E94A42780E001C081E0DF9185
:10351000CF91089562E070E080E291E00C94611B2D
:1035200062E070E080E291E00C946A1B0E94ED1171
:10353000882361F08CE692E00E94F31181E090E034
:103540000E94431C892B11F40C94F0110895809172
:103550006B02883039F460E08CE692E00E94ED1254
:1035600010926B020895CF93DF93D62FC72F0E943E
:10357000961A80E090E00E94431C892BF1F4ED2F15
:10358000FC2F80E090E0DC01A959BD4F2C912193E4
:10359000019684309105B9F70E94132ADC01CB0112
:1035A0000296A11DB11D8093630290936402A093C3
:1035B0006502B093660281E001C080E0DF91CF91A7
:1035C0000895CF93DF93D62FC72F0E94A71A60913B
:1035D00063027091640280916502909166020E947C
:1035E000F629ED2FFC2F80E090E02191DC01A95914
:1035F000BD4F2C93019684309105B9F7DF91CF919F
:1036000008958EE14A9B02C08150E1F74A9BFECFAC
:1036100008955A9880E28A95F1F75A9A0895FC0124
:103620002AE02A95F1F790E020E080E031E02617CB
:1036300079F040E14A95F1F7880F4A9B02C081601A
:10364000932700C0000040E14A95F1F72F5FEFCFCC
:1036500020E12A95F1F729B100C0000030E13A9548
:10366000F1F722FB222720F992272081920F9083E5
:103670000895EF92FF920F931F93CF93DF931F92C2
:10368000CDB7DEB719828C017C01E60EF11C0E1558
:103690001F0559F00E94011B68E0CE0101960E94AF
:1036A0000F1BF80181938F01F2CF81E09981911175
:1036B00080E00F90DF91CF911F910F91FF90EF90DD
:1036C0000895909376028093750260937402529AE3
:1036D0005A9A0895909376028093750260937402CB
:1036E00052985A9AEA9AE9E6F0E080818F7C8083CA
:1036F0000895615091E001C0990F6A95EAF720E0C2
:1037000031E0992361F0492F482319F05A9A232771
:1037100001C05A9840E24A95F1F79695F2CF2223DC
:1037200011F05A9A01C05A9880E28A95F1F75A9896
:103730000895FF920F931F93CF93DF93EC018C01B9
:10374000060F111DC017D10741F0F9900E94091B07
:1037500068E08F2D0E94791BF5CFDF91CF911F91EB
:103760000F91FF9008951F920F920FB60F921124A0
:103770000F931F932F933F934F935F936F937F9379
:103780008F939F93AF93BF93EF93FF93CF93DF9369
:103790001F92CDB7DEB719820E94011B67E0CE01F0
:1037A00001960E940F1B382F369536953695932F2C
:1037B00096959570232F2570920F292F237096953B
:1037C00096958770920F891348C08981811145C0F1
:1037D00080917402831708F440C080E18A95F1F764
:1037E0005A9A529AA2E0AA95F1F700C00091750288
:1037F00010917602B8E03B9F000D111D11245A98DC
:10380000F8016581662321F0868197810E94991BCA
:103810000E94091BF0E1FA95F1F75A9852985A9ACA
:1038200080E18A95F1F7D80112966C911297662380
:1038300069F013968D919C9114970E94391BD801C1
:10384000ED91FC91811105C082E004C0D801ED9199
:10385000FC9188E080830E94011B0F90DF91CF9143
:10386000FF91EF91BF91AF919F918F917F916F9158
:103870005F914F913F912F911F910F910F900FBE2C
:103880000F901F9018950F931F93CF93DF93209164
:10389000740230E0281739070CF471C09C0193E0E2
:1038A000220F331F9A95E1F7C0917502D0917602ED
:1038B000C20FD31FF894529A5A9845E04A95F1F7EF
:1038C0000000982F969595708570890F982F9370AA
:1038D00086958695890F8901082B0E94091B84E033
:1038E0008A95F1F700C067E0802F0E94791B40E1C4
:1038F0004A95F1F752985A9A4A9902C000C0FCCFF3
:1039000087E090E04A9B0EC0019751F4529A5A9A70
:10391000E881F98181E08083789481E090E031C092
:1039200000C0F0CF6D81662381F08E819F810E945F
:10393000391B81110AC0529A5A9AE881F98182E0B2
:103940008083789482E090E01CC00E94011B80E29A
:103950008A95F1F75A98529A40E14A95F1F76A81AF
:10396000662321F08B819C810E94991B0E94091B78
:10397000E881F9811082789480E090E002C084E0D0
:1039800090E0DF91CF911F910F91089590937C0269
:1039900080937B020895E0917B02F0917C02309746
:1039A00021F00190F081E02D099480E00895E091EC
:1039B0007B02F0917C02309721F00280F381E02DB0
:1039C00009940895E0917B02F0917C02309739F0E0
:1039D00022E0DC012C930480F581E02D0994089508
:1039E0002091790230917A022817390771F090936B
:1039F0007A0280937902E0917B02F0917C02309709
:103A000021F00680F781E02D099408952091770236
:103A1000309178022817390771F0909378028093DB
:103A20007702E0917B02F0917C02309721F00084D4
:103A3000F185E02D099408950E94AC2960938A02D3
:103A400070938B0280938C0290938D026093860218
:103A5000709387028093880290938902089585B7B6
:103A6000806885BF85B7806885BF08950C94FE087F
:103A700008950C94381D0C94381D0C943B1D0C9427
:103A8000381D0C943F1D0C94381D0E942F1D81E1A0
:103A900098E20E94482A0E94431D0C94411D0E94F6
:103AA000391D0C94381D0E9497290E94ED290E940F
:103AB00092070E9484150E9422130C943D1D9F9230
:103AC000AF92BF92CF92DF92EF92FF920F931F932C
:103AD000CF93DF93CDB7DEB72A970FB6F894DEBF4A
:103AE0000FBECDBF0E94380881110E941C1D8EE7B9
:103AF000A82E82E0B82E00E010E0902E802F0E94C9
:103B00006007D82EF501C1905F01C826B1F40F5FA0
:103B10001F4F0830110589F78FEF89838A831B8235
:103B20000E94A0298160782F9D838C8349815A81CE
:103B30006B818D810E94FF1D2FC08091FF0281FD4E
:103B40000E946607E12CFF24F3948C2D8F21F1F065
:103B50000E94361D882399F0EE829F82DF2081E04B
:103B600009F480E088870E94A0298160782F9A87D5
:103B700089874E815F8168858A850E94FF1DF801D3
:103B8000E258FD4F8081F826F08206C0E394FF0CD6
:103B9000F7E0EF12DACFBBCF0E945A130E94A50ABA
:103BA0000E94CB1C90917D028917B9F00E94CB1C1A
:103BB00080937D022A960FB6F894DEBF0FBECDBF6C
:103BC000DF91CF911F910F91FF90EF90DF90CF90F9
:103BD000BF90AF909F900C9442052A960FB6F89430
:103BE000DEBF0FBECDBFDF91CF911F910F91FF9030
:103BF000EF90DF90CF90BF90AF909F900895DF92AD
:103C0000EF92FF920F931F93CF93DF93CDB7DEB761
:103C10002B970FB6F894DEBF0FBECDBFF42E052F45
:103C2000162FE72ED82E61110E947F27FE013196B4
:103C300086E0DF011D928A95E9F77E2D4F2D502FEA
:103C4000612F8D2D9E810E94A8242B960FB6F8948B
:103C5000DEBF0FBECDBFDF91CF911F910F91FF90BF
:103C6000EF90DF900895FC01808191810E94FF26F2
:103C70000895CF93882309F4A4C0C82F8238C1F4D3
:103C80000E94CB1C81FD9DC069E380913001909121
:103C900031010E940A290E94A4272FEF81EE94E0AF
:103CA000215080409040E1F700C0000069E319C056
:103CB000833801F50E94CB1C80FD83C063E58091B1
:103CC0003001909131010E940A290E94A4272FEF10
:103CD00081EE94E0215080409040E1F700C0000068
:103CE00063E580913001909131010E940C29CF91C0
:103CF0000C94A4278438C1F40E94CB1C82FD61C0BF
:103D000067E480913001909131010E940A290E945C
:103D1000A4272FEF81EE94E0215080409040E1F7FE
:103D200000C0000067E4DDCF8CEF8C0F813AD0F447
:103D30006C2F80913001909131010E94D42888230A
:103D400049F06C2F80913001909131010E940C2933
:103D50000E94A4276C2F80913001909131010E9424
:103D60000A29C5CF80E28C0F883048F4C77081E003
:103D700001C0880FCA95EAF70E946227B8CFEBE529
:103D8000EC0FE33040F4F0E0EA52FE4F808190E027
:103D9000CF910C94F01CE8E5EC0FE73150F4F0E023
:103DA000EE0FFF1FE855FE4F80819181CF910C945B
:103DB000061DC03F30F08C2F0E94B509CF910C94A6
:103DC000870ACF910895882309F464C0823879F472
:103DD0000E94CB1C81FF5EC069E38091300190910D
:103DE00031010E940A290E94A42769E310C0833888
:103DF000B1F40E94CB1C80FF4DC063E5809130017F
:103E0000909131010E940A290E94A42763E58091C4
:103E10003001909131010E940C290C94A427843820
:103E200079F40E94CB1C82FF35C067E48091300199
:103E3000909131010E940A290E94A42767E4E7CFEC
:103E40009CEF980F913A10F4682FE1CF90E2980F11
:103E5000983050F4877091E001C0990F8A95EAF785
:103E6000892F0E946827D9CF9BE5980F933020F4C3
:103E700080E090E00C94F01C98E5980F973120F4C6
:103E800080E090E00C94061D803F20F00E94100A14
:103E90000C94870A08951F93CF93DF93182FEB019B
:103EA0000E94391E209741F08FE99FE00197F1F7BA
:103EB00000C000002197F6CF812FDF91CF911F9195
:103EC0000C94E31E893319F060E070E002C060E5F5
:103ED00070E00C944B1F882321F00E9462270C9401
:103EE000A4270895882321F00E9468270C94A42712
:103EF0000895CF92DF92EF92FF920F931F93CF938B
:103F0000DF937C01D62FC72FFC011281058102951A
:103F10000F700E943727882399F0112389F08C2F86
:103F2000807F803421F080E28D0F883048F082E07D
:103F30000E94F4270E94372791E0D82ED92601C08D
:103F4000D12CCC2EC2948FE0C8228C2D90E08C30E6
:103F5000910508F0B6C1FC01E759FF4F0C94663596
:103F60008C2F807FCF70882311F0C295C07F1123E2
:103F700099F0CC2309F491C180E28D0F883010F0C4
:103F8000D11104C08C2F0E94622703C08C2F0E9485
:103F900072270E94A42781C18D2F0E94E31ECC238B
:103FA00009F48FC180E28D0F883010F0D11104C068
:103FB0008C2F0E94682703C08C2F0E9478270E94B4
:103FC000A4277FC18C2F807FCF70803211F0C295E3
:103FD000C07FDD2319F0D130C9F022C0112371F068
:103FE000002341F0013031F40E9485278C2B0E9480
:103FF0008D2767C10E9485278C2B1DC0002319F0D7
:10400000013009F45EC10E949A2725C0112321F0D6
:10401000063008F056C10EC0053008F052C11BC072
:10402000112361F0002331F0F701858180FF35C154
:104030008F7085838C2F0E946B1F43C1002359F022
:10404000D93309F03BC1FFEF07EE13E0F150004018
:104050001040E1F731C18C2F0E94721F32C18C2FAA
:1040600086958695837019F0813061F02AC11123FD
:1040700021F08D2F9C2F937002C080E090E00E9471
:10408000F01C27C1112321F08D2F9C2F937002C0AB
:1040900080E090E00E94061D1CC18D2F112319F0B5
:1040A0000E94B50902C00E94100A0E94870A11C12D
:1040B0008C2F837009F047C0111107C12D2F229555
:1040C00026952770220F220F6D2F6F70862F90E09C
:1040D000A0E0B0E0022E04C0880F991FAA1FBB1FEA
:1040E0000A94D2F7D4FF10C04FE050E060E070E0D7
:1040F00004C0440F551F661F771F2A95D2F74095BD
:1041000050956095709503C040E050E0BA01C695A7
:10411000C695C3708A019B01082B192B2A2B3B2BB8
:10412000C901B801C23049F058F4C13019F00E94F9
:104130007C25CBC00E946A25C8C00E948E25C5C0C0
:104140000E946825C2C0112319F08C2F817001C014
:104150008695882309F4B9C02D2F229526952770BE
:10416000220F220F6D2F6F70862F90E0A0E0B0E03D
:10417000022E04C0880F991FAA1FBB1F0A94D2F7F2
:10418000D4FF10C04FE050E060E070E004C0440F86
:10419000551F661F771F2A95D2F740955095609559
:1041A000709503C040E050E0BA01C695C695C37053
:1041B0008A019B01082B192B2A2B3B2BC901B80123
:1041C000C23049F058F4C13019F00E9441267DC038
:1041D0000E942F267AC00E94532677C00E94A225F3
:1041E00074C0CF70112339F08C2F0E94C8258D2FF9
:1041F0000E946B1F6AC08D2F0E94721F8C2F0E941D
:10420000E92563C0D23F01F128F4D03F41F0D13F0E
:10421000A1F03FC0D33FF9F0D43F39F13AC01123A8
:1042200041F0053008F04DC08C2F8F710E940E2692
:1042300048C0063008F045C0F7CF112339F08C2F65
:104240008F710E94C8253DC01123C9F38C2F8F7137
:104250000E94E92536C0112329F08C2F8F710E940E
:10426000B3252FC00E94AE252CC0112349F0CF7179
:104270008C2F0E94C82563E08C2F0E94D92721C073
:1042800081E00E94F4270230E0F082E00E94F427EF
:1042900018C0112331F0002391F28D2F0E94391E96
:1042A00010C0002399F2D93349F41FEF27EE33E011
:1042B000115020403040E1F700C000008D2F0E94D7
:1042C000E31E88EF8C0D843020F40E94CB1C0E94EA
:1042D0004205DD20C9F00E94332780FD15C0F7019B
:1042E00012820E942D270E94C825C7010E94A52185
:1042F0000E942D27DF91CF911F910F91FF90EF909A
:10430000DF90CF900C94E925DF91CF911F910F9111
:10431000FF90EF90DF90CF9008950F931F93CF936E
:10432000DF93EC01688179818A810E940A278C01E0
:104330000E9465260E945625B801CE010E94791F71
:10434000DF91CF911F910F910895CF93DF93EC01EF
:10435000988189812B813C81232B31F08F3F31F46F
:1043600081E09F3F19F403C081E001C080E080FD3F
:1043700019C0CE010E94090481110CC00E94372788
:10438000882381F08A81882369F082E0DF91CF91D0
:104390000C94F427CE010E948D21CE01DF91CF91A4
:1043A0000C948203DF91CF91089580E090E00E9409
:1043B000F01C80E090E00E94061D0E947F270E9472
:1043C00082270E94A4270E94B80B0C94870A809130
:1043D0003001909131010E940E290C94D5210E9448
:1043E0006F270C94E721E92FE295EF704E2F50E0F4
:1043F000FA013297EE30F105B0F4EB58FF4F0C9410
:104400006635803F91F018F4883E68F40EC0843F12
:1044100051F40BC0883E48F0813F29F406C093FB5D
:10442000882780F9089580E0089581E008950E942A
:10443000FF260E94F3210895CF93DF9300D000D090
:104440001F92CDB7DEB70F900F900F900F900F9087
:10445000DF91CF910895CF93DF9300D000D000D0AB
:10446000CDB7DEB726960FB6F894DEBF0FBECDBF30
:10447000DF91CF9108951F93CF93DF93C0918F0267
:1044800016E080919002C81799F0D0E01C9FF001CF
:104490001D9FF00D1124EF56FD4F40815181628127
:1044A0007381848195810E942B222196C770E9CF68
:1044B000DF91CF911F9108954091C1025091C202A6
:1044C0006091C3027091C4028091C5029091C602AE
:1044D0000C942B220F931F93CF93DF938091C602EE
:1044E00082958F7009F05DC08091C302882309F422
:1044F00058C080918F02109190026091C10270911A
:10450000C202C091C402D091C50291E06F3F09F090
:1045100090E0292F06E0811709F443C0209721F08D
:104520007F3F21F030E003C031E001C0322F90E046
:1045300030FD34C0089FF001099FF00D1124DF0108
:10454000AF56BD4F11963C911197371327C03C9140
:10455000361324C012963C91129731111FC0139646
:104560004D915C9114974C1B5D0B483C5105B0F488
:104570008091C6028F7080618093C602EA56FD4F1B
:1045800080818F708061808381EC92E00E94A52100
:10459000DF91CF911F910F910C943B220196877070
:1045A000BACFDF91CF911F910F9108959F92AF9253
:1045B000BF92CF92DF92EF92FF920F931F93CF9310
:1045C000DF93CDB7DEB761970FB6F894DEBF0FBEAD
:1045D000CDBF8C0185E0F801DE011D9601900D92A2
:1045E0008A95E1F7F80140815181E2809091C10202
:1045F0006091C2022091C4023091C502211531059B
:1046000031F06F3F31F481E09F3F19F403C081E046
:1046100001C080E0F82FF1709F2E80FD46C1F801A7
:10462000A380B48081ECC82E82E0D82EF090C30223
:10463000F501E21BF30BFF2009F4DFC08091C602F5
:10464000E83CF10508F09BC0282F207F09F052C0FC
:10465000561313C0491311C0FE2CE1100EC08F7009
:1046600080618093C6020E945C22C6010E94A5213F
:104670008091C602F801858358C1AB2831F05F3FB5
:1046800031F481E04F3F19F403C081E001C080E0C4
:1046900080FD03C081E08E2502C080E090E0F82F0D
:1046A000F170FF2E80FF1CC080918F02209190023C
:1046B00036E0821709F417C190E0389FF001399F66
:1046C000F00D1124EF56FD4F6181561306C0608135
:1046D000461303C06281E61203C001968770E9CFDA
:1046E000FE2CEE2009F421C18091C60281608093E6
:1046F000C6025AC0561306C0491304C0E11002C0D6
:10470000F8019FC04D875E878D859E850E94172288
:10471000882379F1EE2069F12091C602822F8295DB
:104720008F7090E0029774F08091C1029091C20264
:1047300098878F831986BB86AA862C87CE01079619
:104740000E94A52186E0F801A1ECB2E001900D9253
:104750008A95E1F70E946A220E945C220DC05617DA
:1047600029F14D875E878D859E850E9417228111D4
:104770002CC0C8010E94A521FF24F394D6C0282F85
:10478000207F69F77A2DB98AA88A6E2D89890E94BF
:104790001C2281EC92E00E94A52186E0F601119294
:1047A0008A95E9F70E945C22F12CBFC04913D9CF4A
:1047B000E110D7CFF8018583C8010E94A52186E0CA
:1047C000F60111928A95E9F7B0C0EE2091F220919E
:1047D000C602822F82958F7090E002970CF4B2CFC0
:1047E0008091C1029091C2029A8389831B82BD820B
:1047F000AC822E83CE010196A3CFE83CF10508F0F0
:1048000047C0FE2CEE2009F4B4CF561330C0491334
:104810002EC02091C60220FD21C0822F82958F706C
:10482000482F50E041155105C9F0F80125834F305C
:10483000510541F08F5F982F9295907F822F8F7056
:10484000892B8583C8010E94A52186E0F801A1EC8F
:10485000B2E001900D928A95E1F742C086E0F8013E
:10486000A1ECB2E001900D928A95E1F75EC04D8710
:104870005E878D859E850E941722811163CF80916E
:10488000C60281608093C602C8010E94A5214DC066
:104890007A2DB98AA88A6E2D89890E941C2286E009
:1048A000F60111928A95E9F71BC0EE2009F461CF59
:1048B0004D875E878D859E850E941722F82E88235E
:1048C00009F457CF86E0F801A1ECB2E001900D9217
:1048D0008A95E1F781EC92E00E94331E0E946A22E1
:1048E0000E945C2222C04D875E878D859E850E9436
:1048F000FF26292F22952F70223028F49F7039F03F
:10490000811105C00BC0243028F49F7049F4805EEB
:10491000883020F0C8010E94A5219F2CF92C05C0E9
:10492000F8019581907F99F7F9CF8F2D61960FB699
:10493000F894DEBF0FBECDBFDF91CF911F910F91D5
:10494000FF90EF90DF90CF90BF90AF909F90089531
:104950001F93CF93DF93CDB7DEB72C970FB6F894A4
:10496000DEBF0FBECDBF4F83588769877A878B879D
:104970009C87CE0107960E94D6228823D1F09F8182
:1049800088852A853B85232B31F08F3F31F481E0E8
:104990009F3F19F403C081E001C080E080FD47C063
:1049A0004F81588569857A858B859C850E942B224D
:1049B0003EC086E0FE013796DE01119601900D9211
:1049C0008A95E1F7FF81E8856A857B856115710528
:1049D00031F0EF3F31F481E0FF3F19F403C081E093
:1049E00001C080E080FD23C02091900230E0C90129
:1049F00001968770992740918F0250E084179507A0
:104A0000F1F1F983EA837D836C8396E0929FD00174
:104A1000939FB00D1124AF56BD4FFE01319601900A
:104A20000D929A95E1F7809390020E943B2216E046
:104A300080918F0290919002891771F1189FC001A7
:104A400011248F569D4F0E94D622882329F1E09190
:104A50008F021E9FF0011124EF56FD4F40815181BE
:104A600062817381848195810E942B2280918F02C3
:104A700090E001968770992780938F02D9CF0E948A
:104A8000EF211092900210928F02E1ECF2E086E0AA
:104A9000DF011D928A95E9F72C960FB6F894DEBFD8
:104AA0000FBECDBFDF91CF911F9108950895089556
:104AB0000C9457250C9458250E945A256093EE02B9
:104AC0007093EF028093F0029093F1020C94D52141
:104AD0000C945C250F931F930091EE021091EF024E
:104AE0002091F0023091F102602B712B822B932BDD
:104AF0001F910F910C945C250F931F930091EE0270
:104B00001091EF022091F0023091F10260237123A5
:104B1000822393231F910F910C945C250F931F9375
:104B20000091EE021091EF022091F0023091F1021B
:104B300060277127822793271F910F910C945C2582
:104B40000C9457250E94A0256093EA027093EB0213
:104B50008093EC029093ED020C94D52160E070E01C
:104B6000CB010C94A2250F931F9341E050E060E02D
:104B700070E08A019B0104C0000F111F221F331F28
:104B80008A95D2F7C901B8011F910F910C94A22503
:104B90000F931F9341E050E060E070E004C0440FC9
:104BA000551F661F771F8A95D2F78091EA02909170
:104BB000EB02A091EC02B091ED028A019B01082B5F
:104BC000192B2A2B3B2BC901B8011F910F910C9473
:104BD000A2250F931F9341E050E060E070E004C015
:104BE000440F551F661F771F8A95D2F74095509541
:104BF000609570958091EA029091EB02A091EC0291
:104C0000B091ED028A019B01082319232A233B233B
:104C1000C901B8011F910F910C94A2250F931F9306
:104C200041E050E060E070E004C0440F551F661F93
:104C3000771F8A95D2F78091EA029091EB02A091BA
:104C4000EC02B091ED028A019B01082719272A275F
:104C50003B27C901B8011F910F910C94A2250F9316
:104C60001F930091EA021091EB022091EC02309127
:104C7000ED02602B712B822B932B1F910F910C94C3
:104C8000A2250F931F930091EA021091EB0220914D
:104C9000EC023091ED0260237123822393231F9154
:104CA0000F910C94A2250F931F930091EA0210918B
:104CB000EB022091EC023091ED02602771278227F0
:104CC00093271F910F910C94A225089527E0929F9E
:104CD000800D1124E82FE695E695E695877051E062
:104CE00001C0550F8A95EAF785E0E89FF00111248D
:104CF000E953FD4F20E030E070E04081CB01022E0F
:104D000002C0969587950A94E2F781708195842771
:104D10008523842781932F5F3F4F2530310569F725
:104D2000089527E0929F800D1124682F669566955F
:104D30006695982F977085E0689FB001112440E038
:104D400050E080E0FB01E40FF51FE953FD4F2081A7
:104D500030E0092E02C0369527950A94E2F72170BB
:104D60003327042E01C0220F0A94EAF7822B4F5FEB
:104D70005F4F4530510531F70895BF92CF92DF92D2
:104D8000EF92FF920F931F93CF93DF938C01C0900C
:104D9000EA02D090EB02E090EC02F090ED028091FC
:104DA000EE029091EF02A091F002B091F102C82AB8
:104DB000D92AEA2AFB2ACFE1D0E0D701C6010C2E7E
:104DC00004C0B695A795979587950A94D2F780FD6C
:104DD00004C0219790F7B12C07C0BC2EB8018C2FCE
:104DE0000E944B050197A9F38B2DDF91CF911F9165
:104DF0000F91FF90EF90DF90CF90BF900895CF93E9
:104E0000DF93EC010E94BD26BE010E944B05DF919D
:104E1000CF9108951F93CF93DF93EB0190918E0272
:104E2000992321F0CB010E94FF2613C0882349F06B
:104E3000CB010E94BD26182F682FCE010E94662646
:104E400004C0CB010E949126182FBE01812F0E9421
:104E50004B05DF91CF911F9108958091F2028595C6
:104E60008595859508958091F202877008959091B7
:104E7000F202977081E009F480E0089590910C03AC
:104E800092FB222720F9281751F080FB92F990938A
:104E90000C0380910B0390910C030C943D28089512
:104EA00080910C0382FB882780F991E089270C947C
:104EB0003E2781E00C943E2780E00C943E278091B1
:104EC000FE0208959091FE02892B8093FE020895C0
:104ED00080959091FE0289238093FE02089510929E
:104EE000FE0208959091FD02892B8093FD020895A2
:104EF00080959091FD0289238093FD020895109280
:104F0000FD0208951092FC0208958091F302089525
:104F100008950C9488270C94892790910C0392FD96
:104F200008C09091F302981721F08093F3020C943B
:104F30008B2708958091F302882329F01092F302C1
:104F400080E00C948B270895E0913001F0913101BD
:104F50008091FE028083E0913001F09131019081D7
:104F60008091FD02892B8083E0913001F091310125
:104F700090818091FC02892B80838091F3028823A9
:104F800081F0E0913001F09131019081892B808393
:104F900080913001909131010E94C82881110E94B6
:104FA0009A2780913001909131010C94D71C0C9478
:104FB000882790910C0392FD10C098E0899F900182
:104FC0001124262B2093F2020E94C8258091F20220
:104FD0008595859585950C94D7270C94C8251092B6
:104FE000F20280E00C94D7272091F2028095822370
:104FF0008093F202982F977041F430E0482F082EEA
:10500000000C550B2417350721F490910C0392FFE7
:1050100007C08595859585950E94E9250C94EF2715
:10502000089580E008956FEF7FEF80E090E00C94AA
:105030003F3680E090E00E941B3621E08A3E9E4F82
:1050400009F020E0822F089582E090E00C940D3664
:1050500083E090E00C940D36CF9384E090E00E94C2
:105060000D36C82F82E290E00E940D362C2F30E0E2
:10507000A901582BCA01CF910895CF93C92F682F4A
:1050800084E090E00E9421366C2F82E290E0CF9184
:105090000C942136AB01BC018FE090E00C943336C8
:1050A000AB01BC0183E190E00C94333660E070E02A
:1050B000CB010C94502860E070E0CB010E944A289C
:1050C0000C9456286AEE7EEF80E090E00E943F3616
:1050D00060E082E090E00E94213660E083E090E0B2
:1050E0000E9421361092EE021092EF021092F0020E
:1050F0001092F10260E084E090E00E94213660E0CE
:1051000082E290E00E94213660E085E090E00E941B
:10511000213660E086E090E00E9421366FEF87E064
:1051200090E00E94213640E050E0BA0188E090E033
:105130000E94333660E08DE090E00E94213640E02E
:1051400050E0BA0188E190E00E94333660E087E1E8
:1051500090E00E94213640E050E0BA018CE190E0FE
:105160000E94333660E070E080E290E00E943F36BB
:1051700040E050E0BA0188E190E00E9433360C94A0
:105180005B280C946228682F8EE090E00C94213606
:10519000FC01329697E080E0915029F02191222382
:1051A000D9F38F5FF9CF0895662349F0FC01329659
:1051B00008962191621729F0E817F907D1F780E0E6
:1051C000089581E008959C01FC0132969FEF80E0F4
:1051D0004191461789F09F3F19F4411101C0982F62
:1051E0008F5F8630A9F79F3F39F0F901E90FF11D74
:1051F00097FDFA956283089508959C012A5F3F4FB9
:10520000FC014281461301C0128201968217930766
:10521000B9F708950C94E3280C94FD28029626E033
:10522000FC0111922A95E9F7089508950C94152927
:105230000C941529CF930E9418290E9438080E94C7
:105240001629C0E08C2F0E946007811104C0CF5F37
:10525000C830C1F701C081E0CF9108950C941529A1
:105260000C942E2980916003843059F10E943029DA
:1052700080E00E9442050E94DC121092000320E4AC
:1052800088E190E00FB6F894A895809360000FBE77
:105290002093600083B7817F846083BF83B7816080
:1052A00083BF7894889583B78E7F83BF0FB6F894B9
:1052B000A8958091600088618093600010926000E2
:1052C0000FBE08950C9415290E94EF210E94CB1C5B
:1052D0000E9442050E9498120C9462291F920F921C
:1052E0000FB60F9211248F939F93AF93BF9380912A
:1052F0000003811113C08091540390915503A09134
:105300005603B09157034196A11DB11D80935403DC
:1053100090935503A0935603B0935703BF91AF9159
:105320009F918F910F900FBE0F901F90189582E064
:1053300084BD93E095BD9AEF97BD80936E0008956C
:105340002FB7F8948091540390915503A091560380
:10535000B09157032FBF08952FB7F894609154036D
:105360007091550380915603909157032FBF089574
:105370009C014FB7F8948091540390915503A091EC
:105380005603B09157034FBF821B930B0895789437
:105390001F920F920FB60F9211248F939F93AF938A
:1053A000BF938091540390915503A0915603B091FF
:1053B00057030196A11DB11D80935403909355038B
:1053C000A0935603B0935703BF91AF919F918F91D4
:1053D0000F900FBE0F901F901895109258031092C7
:1053E000590310925A0310925B030895CF92DF92F3
:1053F000EF92FF926B017C010E94FE0881110EC0AA
:105400000E94AC29C61AD70AE80AF90AC0925803C2
:10541000D0925903E0925A03F0925B03FF90EF9011
:10542000DF90CF9008950F931F930E94FE0888236A
:1054300021F01F910F910C94AC290E94AC2900918E
:1054400058031091590320915A0330915B03600F68
:10545000711F821F931F1F910F9108950E94FE08D4
:1054600081110C94A0290E94132ACB01089587E78B
:1054700097E790930108809300089AE088E10FB6BF
:10548000F894A895809360000FBE90936000FFCFC2
:105490009093E9018093E8010895809109030895AC
:1054A000CF93DF9300D01F92CDB7DEB7909160030A
:1054B000943011F589837B836A839093E9008FEFA1
:1054C0009091E800815095FD06C095ED9A95F1F711
:1054D00000008111F5CF8091E80085FF0DC040E00C
:1054E00050E063E070E0CE0101960E94CC2C8091E8
:1054F000E8008E778093E8000F900F900F90DF9177
:10550000CF910895BC0184E00C94502ABC0183E043
:105510000C94502A24E02093E9002FEF3091E8000A
:10552000215035FD06C035ED3A95F1F70000211107
:10553000F5CF2091E80025FF0BC040E050E066E089
:1055400070E00E94CC2C8091E8008E778093E80078
:105550000895CF93DF9321E02093E9002FEF30915E
:10556000E800215035FD06C035ED3A95F1F7000011
:105570002111F5CF2091E80025FF14C0EC0140E097
:1055800050E068E070E00E94CC2C8091E8008E77BB
:105590008093E80088E0FE01A1E0B3E001900D9265
:1055A0008A95E1F7DF91CF910895CF93603219F595
:1055B000209160032430F9F4C091E900CF7030915C
:1055C000EC00232F217030FD20E8C22B22E0209335
:1055D000E9002091E80020FF0BC040E050E060E2CD
:1055E00070E00E94CC2C8091E8008E778093E800D8
:1055F000CF70C093E900CF91089580915F0381112E
:1056000009C00E94A82E0E94052F8091E2008460AC
:105610008093E200089510925F030895089508951D
:10562000089542E061EC81E00E94212E42E261ECAB
:1056300084E00E94212E42E261EC82E00E94212E51
:1056400042E260EC83E00C94212E8091620383306F
:1056500009F462C030F4813071F0823009F49BC0EB
:1056600008958A3009F487C08B3009F46DC0893001
:1056700009F0A9C020C080916103813A09F0A3C05C
:105680008091E800877F8093E80080916503909186
:105690006603892B21F468E081E093E003C060E0B9
:1056A00080E090E070E00E94622D8091E8008B77AE
:1056B0008093E800089580916103813209F083C0EE
:1056C0008091650390916603009719F0029709F0A5
:1056D0007AC08091E800877F8093E8008091E8009D
:1056E00082FD05C0809160038111F8CF6CC02091CC
:1056F000F3008091F20090E0922B029729F48091C0
:10570000F1008B7F813021F48091F10080930903B7
:105710008091E8008B7753C080916103813A09F052
:1057200052C08091650390916603892B09F04BC0AC
:105730008091E800877F8093E8008091E80080FFF7
:10574000FCCF80913C0136C0809161038132D9F554
:105750008091650390916603892BA9F58091E800FB
:10576000877F8093E8000E94562E80916303809388
:105770003C010C94EF2180916103813221F58091ED
:10578000E800877F8093E8000E94562E8091640392
:1057900080930A03089580916103813AA1F4809176
:1057A000E800877F8093E8008091E80080FFFCCFCD
:1057B00080910A038093F1008091E8008E778093B6
:1057C000E8000C94562E08951F93CF93DF93CDB726
:1057D000DEB7A0970FB6F894DEBF0FBECDBF84B77B
:1057E000877F84BF0FB6F894A89580916000886188
:1057F00080936000109260000FBE90E080E80FB6CA
:10580000F89480936100909361000FBE0E94451D43
:105810000E94A82E0E94052F8091E2008460809350
:10582000E20078940E949A310E94531D82E391E035
:105830000E94C61C13E0809160038530A9F480911A
:105840006003853079F40E94322980915E038823B9
:10585000B1F30E941A29882391F30E94B62C0E946A
:10586000EF21EDCF0E9464290E945F1D80916003AB
:10587000843009F51093E9008091E80082FF1BC095
:105880008091E80085FF0AC040E050E060E270E0EF
:10589000CE0101960E94172D91E001C090E0809109
:1058A000E8008B778093E800992329F060E2CE012D
:1058B00001960E9429160E944F1DBDCF0C94602CAA
:1058C000292F332723303105C9F060F42130310509
:1058D00081F02230310509F041C08BE590E02EE9DE
:1058E00034E040C021323105E1F02232310531F19E
:1058F00035C082E190E029EF34E034C0992781304F
:10590000910549F028F0029749F5EAE7F4E005C06F
:10591000EAE9F4E002C0EEE8F4E0849190E09F014F
:1059200021C063307105D0F4660F771FFB01EE5183
:10593000FE4F2081318189E090E014C06330710511
:1059400068F4FB01EE0FFF1FE452FE4F208131810E
:10595000FB01E752FE4F808190E004C080E090E0C0
:1059600020E030E0FA0131832083089580E189BD91
:1059700082E189BD09B400FEFDCF8091D8008F7D02
:105980008093D8008091E00082608093E000809155
:10599000E00081FDFCCF0895CF92DF92EF92FF925D
:1059A0000F931F93CF93DF93EC018B017A010E9439
:1059B000752E811133C0E114F10439F0F7018081B3
:1059C0009181081B190BC80FD91FC12CD12C0115AF
:1059D000110519F18091E80085FD16C08091E8005D
:1059E0008E778093E800E114F10449F0F70180819B
:1059F0009181C80ED91ED182C08285E00FC00E945D
:105A0000752E882321F30AC089918093F1000150FB
:105A10001109FFEFCF1ADF0ADACF80E0DF91CF91D3
:105A20001F910F91FF90EF90DF90CF900895CF924C
:105A3000DF92EF92FF920F931F93CF93DF93EC01CE
:105A40008B017A010E94752E811133C0E114F1049B
:105A500039F0F70180819181081B190BC80FD91FFC
:105A6000C12CD12C0115110519F18091E80085FD9B
:105A700016C08091E8008B778093E800E114F10470
:105A800049F0F70180819181C80ED91ED182C08270
:105A900085E00FC00E94752E882321F30AC08091F3
:105AA000F100899301501109FFEFCF1ADF0ADACF15
:105AB00080E0DF91CF911F910F91FF90EF90DF90E9
:105AC000CF90089520916703309168032617370718
:105AD00048F06115710539F42091E8002E77209384
